:020000040000FA
:060000000A128A11EE2F26
:100ED800700883120313880008008316031388011F
:100EE80083120313880108003F3406345B344F34FF
:100EF80066346D347D3407347F346F3477347C3412
:100F080039345E34793471347E088A007F0882006F
:100F18000A128A1188270A128A118000840A040892
:100F28007D0603190034FF0A0319FE0A8C2FAA2F25
:100F3800FF30F0070318F10AFF30F107C730F2005D
:100F4800A52FF20BA42FA82FA92FAA2F7008710480
:100F5800031DAF2FB02F9C2FB12F0800F501F6010C
:100F68000A128A1171270A128A11BA2F7508203EAF
:100F7800840083130008F300F4017308F000740878
:100F8800F1000A128A116C270A128A11E830F0005F
:100F98000330F1000A128A119B270A128A110130C4
:100FA800F5070318F60A0030F6077608803AFF00BE
:100FB80080307F02031DE22F10307502031CE52FDD
:100FC800E62FBA2FF501F601BA2FBA2FBA2F0A1257
:100FD8008A11002883133030FD000730FE00783076
:100FE800FF00203084000A128A118C270A128A1105
:080FF80083010A128A11B22FD5
:04400E00D4E0FFFFFC
:00000001FF
