:020000040000FA
:060000000A128A11EE2F26
:100DEA00831603138815081508007008203E84002E
:100DFA00831300088312031386000800831603175F
:100E0A0089018316031386018312031386010800DE
:100E1A0083120313080CF200720C0139F300F40177
:100E2A007308F0007408F1001A2F080083120313E4
:100E3A00080CF200F20C720C0139F300F401730889
:100E4A00F0007408F100292F08003F3406345B349F
:100E5A004F3466346D347D3407347F346F347734DD
:100E6A007C3439345E34793471347E088A007F08E0
:100E7A0082000A128A113A270A128A118000840A09
:100E8A0004087D0603190034FF0A0319FE0A3E2FDF
:100E9A00F801F901F7010A128A1103270A128A11C5
:100EAA000A128A11F5260A128A11AE2FAE2F0A12D9
:100EBA008A111B270A128A1170037104031D662FF7
:100ECA00672F6A2FF701F70A6A2F0A128A110D276C
:100EDA000A128A1170037104031D742F752FC72F0C
:100EEA000330F5007508F700C72FC72F0A128A11B9
:100EFA001B270A128A1170087104031D852F862F79
:100F0A00C72F0230F5007508F700C72FC72F013029
:100F1A00F8070318F90A0030F907F701C72F0A1270
:100F2A008A110D270A128A1170087104031D9E2F57
:100F3A009F2FC72F0430F5007508F700C72FC72F5A
:100F4A000130F8070318F90A0030F907F701C72F2B
:100F5A00C72F7708F500F6017608003A0319B62F6D
:100F6A00C72F7508003A03195C2F013A03197B2F22
:100F7A00033A03198C2F013A0319942F073A0319DC
:100F8A00A52FC72F7908F1007808F0000A128A11F4
:100F9A00FA260A128A117908803AFF0080307F0205
:100FAA00031DD92F0A307802031CDC2FDD2FE02F16
:100FBA00F801F901E02FF91FE32FE42FAE2F0930D2
:100FCA00F8000030F900AE2FAE2FAE2F0A128A11A8
:100FDA00002883133030FD000730FE002A30FF005E
:100FEA00203084000A128A113E270A128A118301CC
:060FFA000A128A114D2FBE
:04400E00D4E0FFFFFC
:00000001FF
